:020000000A28CC
:10000800FE00030EF7000A08F8005C290B280130EF
:10001800F001F101F201F301F401F501F601FC0030
:0400280083014229E5
:10020000FF0001308A007F0882070529B7290829E5
:10021000730803190C29A92972080319080005306D
:10022000F201F50A7502031C28293C30F501F60A93
:100230007602031C25290330F601F40A7402031C1C
:100240002329093024297408F0007408013EF100C4
:10025000710803193529F103831285126730FB00F9
:10026000FB0B302933298312851670080319080007
:10027000F003902103307402031C08007008031D72
:1002800008000B2907309900F03083169F05831270
:100290001F1083160F168F120F1320308312850044
:1002A0000C30831685008113151501138B100B1666
:1002B0008B177C08002159298B1C61298B10F301B5
:1002C000F30A83120C1C6B290C10E7308F0090305E
:1002D0008E00F201F20A78088A00770E8300FE0E83
:1002E0007E0E0900FF30FA007A0803190800031097
:1002F000FA0D8312051DFA0A9B30F900F90B7E29CD
:10030000812974299012101290100C1083160C146D
:100310000B17E73083128F0090308E001014080006
:10032000F901831205169429000083120512283062
:10033000F90A790203180800912983128516023000
:10034000FC00F501F601F401F101F001F201F30105
:10035000822973080319AD2972210130FC00B029EC
:10036000831210100C1083160C100B13080063007E
:080370008312851272219D2900
:02400E00D4F0EC
:00000001FF
