:020000000A28CC
:10000800FE00030EF7000A08F80069290B280130E2
:10001800F001F101F201F301F401F501F601FC0030
:0400280083014229E5
:10020000FF0001308A007F0882070529B6290829E6
:10021000730803190C29AD29720803190800053069
:10022000F201F50A7502031C28293C30F501F60A93
:100230007602031C25290330F601F40A7402031C1C
:100240002329093024297408F0007408013EF100C4
:10025000710803193529F103831285126730FB00F9
:10026000FB0B302933298312851670080319080007
:10027000F003A02103307402031C08007008031D62
:1002800008000B2907309900F03083169F05831270
:100290001F1083160F168F120F1320308312850044
:1002A0000C308316850081131515011383129012EB
:1002B000101290101010E7308F0090308E000C104C
:1002C00083160C140B178B100B168B177C08002150
:1002D00066298B1C6E298B10F301F30A83120C1C08
:1002E00078290C10E7308F0090308E00F201F20A6E
:1002F00078088A00770E8300FE0E7E0E09008312B6
:1003000085160230FC00E730F501F601F401F10139
:10031000F001F2018F0090308E001014F3010800FC
:10032000FF30FA007A08031908000310FA0D83124F
:10033000051DFA0A9B30F900F90B9C299F29922987
:10034000F90183120516A429000083120512283032
:10035000F90A790203180800A12973080319B129C1
:1003600090210130FC0083121010080063008312FA
:06037000851290217F2997
:02400E00D4F0EC
:00000001FF
